:020000040000FA
:100000006808FD1F290400003D0400003F040000B3
:10001000410400004304000045040000000000000B
:100020000000000000000000000000004704000085
:1000300049040000000000004B0400004D040000D3
:100040004F0400004F0400004F0400004F04000064
:100050004F0400004F0400004F0400004F04000054
:100060004F0400004F0400004F0400004F04000044
:100070004F0400004F0400004F0400004F04000034
:100080004F0400004F0400004F0400004F04000024
:100090004F0400004F0400004F0400004F04000014
:1000A0004F0400004F0400004F0400004F04000004
:1000B0004F0400004F0400004F0400004F040000F4
:1000C0004F0400004F0400004F0400004F040000E4
:1000D0004F0400004F0400004F0400004F040000D4
:1000E0004F0400004F0400004F0400004F040000C4
:1000F0004F0400004F0400004F0400004F040000B4
:100100004F0400004F0400004F0400004F040000A3
:100110004F0400004F0400004F0400004F04000093
:100120004F0400004F0400004F0400004F04000083
:100130004F0400004F0400004F0400004F04000073
:100140004F0400004F0400004F0400004F04000063
:100150004F0400004F0400004F0400004F04000053
:100160004F0400004F0400004F0400004F04000043
:100170004F0400004F0400004F0400004F04000033
:100180004F0400004F0400004F0400004F04000023
:100190004F0400004F0400004F0400004F04000013
:1001A0004F0400004F0400004F0400004F04000003
:1001B0004F0400004F0400004F0400004F040000F3
:1001C0004F0400004F0400004F0400004F040000E3
:1001D0004F0400004F0400004F0400004F040000D3
:1001E0004F0400004F0400004F0400004F040000C3
:1001F0004F0400004F0400004F0400004F040000B3
:100200004F0400004F0400004F0400004F040000A2
:100210004F0400004F0400004F0400004F04000092
:100220004F0400004F0400004F0400004F04000082
:100230004F0400004F0400004F0400004F04000072
:1002400000F002F800F03CF80AA090E8000C8244AC
:100250008344AAF10107DA4501D100F031F8AFF289
:10026000090EBAE80F0013F0010F18BFFB1A43F094
:100270000103184788020000A8020000103A24BFBA
:1002800078C878C1FAD8520724BF30C830C144BFFB
:1002900004680C607047000000230024002500263D
:1002A000103A28BF78C1FBD8520728BF30C148BFD9
:1002B0000B6070471FB500F01CF91FBD10B510BDD5
:1002C00000F0DDF81146FFF7F5FF00F0ABF800F0A5
:1002D000FBF803B4FFF7F2FF03BC00F003F90000E2
:1002E00046490868C0F342124548062A16D2DFE89C
:1002F00002F0161603151012C86B414A00F03F00B9
:10030000401C50438A6BC2F30312521CB0FBF2F044
:1003100005E03C4803E04FF4004000E0002009699C
:1003200001F007023849072A14D2DFE802F011046D
:1003300006080A0E100040080AE0032202E08008C6
:1003400006E00622B0FBF2F002E0C00800E000097F
:10035000086070470020FBE730B52D482B4901604D
:10036000C94301602B48002282602B48016841F498
:10037000700101600123C1064B6148698007FCD50B
:100380001E4802614361802484618124C461832406
:10039000046282625C240463046844F00204046022
:1003A0004468A407FCD5426383633123C3630368B5
:1003B00043F0100303604368DB06FCD5036843F099
:1003C00040030360104C0368456803F0E00305F048
:1003D000E0059D42F7D16360D1F800310F489843A2
:1003E0000BD00A4B0E48DB1CC360D1F800311B0C4C
:1003F0008360D1F800114160C26030BD000001404F
:1004000000093D00A08601000000FD1F51E5CC1A47
:10041000001C01400010014088ED00E0FF031F00B8
:1004200000E00240FEE70000DFF83000016841F420
:10043000700101600A4880470A480047FEE7FEE76E
:10044000FEE7FEE7FEE7FEE7FEE7FEE7FEE7FEE784
:1004500005480649064A074B7047000088ED00E052
:1004600059030000410200006800FD1F6808FD1FDD
:100470006804FD1F6804FD1F70477047704775468C
:1004800000F02CF8AE4605006946534620F0070000
:10049000854618B020B5FFF7DBFFBDE820404FF0E0
:1004A00000064FF000074FF000084FF0000B21F05E
:1004B0000701AC46ACE8C009ACE8C009ACE8C0092B
:1004C000ACE8C0098D46704710B50446AFF3008014
:1004D0002046BDE81040FFF7FCBE00000048704712
:1004E0000800FD1F01491820ABBEFEE726000200F0
:1004F00070474FF04070E1EE100A70471C05000095
:100500000000FD1F080000007C0200002405000020
:100510000800FD1F600800009802000000C2EB0BFD
:0405200000000000D7
:0400000500000241B4
:00000001FF
